{
  "address": "0x4a59b34497Da945EB2077C31d5E05746DaC90161",
  "abi": [
    {
      "inputs": [],
      "stateMutability": "nonpayable",
      "type": "constructor"
    },
    {
      "anonymous": false,
      "inputs": [
        {
          "indexed": false,
          "internalType": "string",
          "name": "",
          "type": "string"
        }
      ],
      "name": "MessageReceived",
      "type": "event"
    },
    {
      "inputs": [],
      "name": "getLastMessage",
      "outputs": [
        {
          "internalType": "string",
          "name": "",
          "type": "string"
        }
      ],
      "stateMutability": "view",
      "type": "function"
    },
    {
      "inputs": [],
      "name": "getTotalMessages",
      "outputs": [
        {
          "internalType": "uint256",
          "name": "",
          "type": "uint256"
        }
      ],
      "stateMutability": "view",
      "type": "function"
    },
    {
      "inputs": [
        {
          "internalType": "string",
          "name": "_message",
          "type": "string"
        }
      ],
      "name": "sendMessage",
      "outputs": [],
      "stateMutability": "nonpayable",
      "type": "function"
    }
  ],
  "transactionHash": "0xfd398b1c626f8bbe840e3cf66a532112607bb244348fed841643469cce689419",
  "args": [],
  "numDeployments": 1,
  "solcInputHash": "7f00023fcd51905b75282b97da7b2ccc",
  "bytecode": "0x608060405234801561001057600080fd5b507ff7d0fdc395711a2233b76a4ff1de3b5657584b471fd633499a7faf1fbcaba46360405161003e906100a8565b60405180910390a16100c8565b600082825260208201905092915050565b7f5a65656b2077656c636f6d657320796f7520746f205a4b73796e632100000000600082015250565b6000610092601c8361004b565b915061009d8261005c565b602082019050919050565b600060208201905081810360008301526100c181610085565b9050919050565b610939806100d76000396000f3fe608060405234801561001057600080fd5b50600436106100415760003560e01c8063147e910814610046578063469c811014610064578063526bf76e14610080575b600080fd5b61004e61009e565b60405161005b9190610236565b60405180910390f35b61007e600480360381019061007991906103ab565b6100aa565b005b610088610117565b6040516100959190610473565b60405180910390f35b60008080549050905090565b6000819080600181540180825580915050600190039060005260206000200160009091909190915090816100de91906106a1565b507ff7d0fdc395711a2233b76a4ff1de3b5657584b471fd633499a7faf1fbcaba46360405161010c906107e5565b60405180910390a150565b60606000808054905011610160576040517f08c379a000000000000000000000000000000000000000000000000000000000815260040161015790610851565b60405180910390fd5b6000600160008054905061017491906108a0565b81548110610185576101846108d4565b5b90600052602060002001805461019a906104c4565b80601f01602080910402602001604051908101604052809291908181526020018280546101c6906104c4565b80156102135780601f106101e857610100808354040283529160200191610213565b820191906000526020600020905b8154815290600101906020018083116101f657829003601f168201915b5050505050905090565b6000819050919050565b6102308161021d565b82525050565b600060208201905061024b6000830184610227565b92915050565b6000604051905090565b600080fd5b600080fd5b600080fd5b600080fd5b6000601f19601f8301169050919050565b7f4e487b7100000000000000000000000000000000000000000000000000000000600052604160045260246000fd5b6102b88261026f565b810181811067ffffffffffffffff821117156102d7576102d6610280565b5b80604052505050565b60006102ea610251565b90506102f682826102af565b919050565b600067ffffffffffffffff82111561031657610315610280565b5b61031f8261026f565b9050602081019050919050565b82818337600083830152505050565b600061034e610349846102fb565b6102e0565b90508281526020810184848401111561036a5761036961026a565b5b61037584828561032c565b509392505050565b600082601f83011261039257610391610265565b5b81356103a284826020860161033b565b91505092915050565b6000602082840312156103c1576103c061025b565b5b600082013567ffffffffffffffff8111156103df576103de610260565b5b6103eb8482850161037d565b91505092915050565b600081519050919050565b600082825260208201905092915050565b60005b8381101561042e578082015181840152602081019050610413565b60008484015250505050565b6000610445826103f4565b61044f81856103ff565b935061045f818560208601610410565b6104688161026f565b840191505092915050565b6000602082019050818103600083015261048d818461043a565b905092915050565b7f4e487b7100000000000000000000000000000000000000000000000000000000600052602260045260246000fd5b600060028204905060018216806104dc57607f821691505b6020821081036104ef576104ee610495565b5b50919050565b60008190508160005260206000209050919050565b60006020601f8301049050919050565b600082821b905092915050565b6000600883026105577fffffffffffffffffffffffffffffffffffffffffffffffffffffffffffffffff8261051a565b610561868361051a565b95508019841693508086168417925050509392505050565b6000819050919050565b600061059e6105996105948461021d565b610579565b61021d565b9050919050565b6000819050919050565b6105b883610583565b6105cc6105c4826105a5565b848454610527565b825550505050565b600090565b6105e16105d4565b6105ec8184846105af565b505050565b5b81811015610610576106056000826105d9565b6001810190506105f2565b5050565b601f82111561065557610626816104f5565b61062f8461050a565b8101602085101561063e578190505b61065261064a8561050a565b8301826105f1565b50505b505050565b600082821c905092915050565b60006106786000198460080261065a565b1980831691505092915050565b60006106918383610667565b9150826002028217905092915050565b6106aa826103f4565b67ffffffffffffffff8111156106c3576106c2610280565b5b6106cd82546104c4565b6106d8828285610614565b600060209050601f83116001811461070b57600084156106f9578287015190505b6107038582610685565b86555061076b565b601f198416610719866104f5565b60005b828110156107415784890151825560018201915060208501945060208101905061071c565b8683101561075e578489015161075a601f891682610667565b8355505b6001600288020188555050505b505050505050565b7f5a4b2069732074686520656e6467616d65202d204d657373616765207265636560008201527f6976656421000000000000000000000000000000000000000000000000000000602082015250565b60006107cf6025836103ff565b91506107da82610773565b604082019050919050565b600060208201905081810360008301526107fe816107c2565b9050919050565b7f4e6f206d657373616765732073656e7420746f205a65656b2079657421000000600082015250565b600061083b601d836103ff565b915061084682610805565b602082019050919050565b6000602082019050818103600083015261086a8161082e565b9050919050565b7f4e487b7100000000000000000000000000000000000000000000000000000000600052601160045260246000fd5b60006108ab8261021d565b91506108b68361021d565b92508282039050818111156108ce576108cd610871565b5b92915050565b7f4e487b7100000000000000000000000000000000000000000000000000000000600052603260045260246000fdfea2646970667358221220c24ab36c067b650072bf59bb7a83a79ba926d6b50b8fbc675f7cee7536f8ecc764736f6c63430008180033",
  "devdoc": {
    "kind": "dev",
    "methods": {},
    "version": 1
  },
  "userdoc": {
    "kind": "user",
    "methods": {},
    "version": 1
  },
  "storageLayout": {
    "storage": [
      {
        "astId": 1465,
        "contract": "contracts/ZeekMessages.sol:ZeekMessages",
        "label": "messages",
        "offset": 0,
        "slot": "0",
        "type": "t_array(t_string_storage)dyn_storage"
      }
    ],
    "types": {
      "t_array(t_string_storage)dyn_storage": {
        "base": "t_string_storage",
        "encoding": "dynamic_array",
        "label": "string[]",
        "numberOfBytes": "32"
      },
      "t_string_storage": {
        "encoding": "bytes",
        "label": "string",
        "numberOfBytes": "32"
      }
    }
  }
}